{
  "contractName": "Voting",
  "abi": [
    {
      "inputs": [],
      "stateMutability": "nonpayable",
      "type": "constructor"
    },
    {
      "anonymous": false,
      "inputs": [
        {
          "indexed": false,
          "internalType": "uint256",
          "name": "id",
          "type": "uint256"
        },
        {
          "indexed": false,
          "internalType": "string",
          "name": "nome",
          "type": "string"
        }
      ],
      "name": "CandidatoAdicionado",
      "type": "event"
    },
    {
      "anonymous": false,
      "inputs": [
        {
          "indexed": false,
          "internalType": "address",
          "name": "eleitor",
          "type": "address"
        },
        {
          "indexed": false,
          "internalType": "bool",
          "name": "autorizado",
          "type": "bool"
        }
      ],
      "name": "EleitorAutorizado",
      "type": "event"
    },
    {
      "anonymous": false,
      "inputs": [
        {
          "indexed": false,
          "internalType": "uint256",
          "name": "idCandidato",
          "type": "uint256"
        },
        {
          "indexed": false,
          "internalType": "address",
          "name": "eleitor",
          "type": "address"
        },
        {
          "indexed": false,
          "internalType": "string",
          "name": "motivo",
          "type": "string"
        }
      ],
      "name": "VotoFalhou",
      "type": "event"
    },
    {
      "anonymous": false,
      "inputs": [
        {
          "indexed": false,
          "internalType": "uint256",
          "name": "id",
          "type": "uint256"
        },
        {
          "indexed": false,
          "internalType": "string",
          "name": "nome",
          "type": "string"
        },
        {
          "indexed": false,
          "internalType": "address",
          "name": "eleitor",
          "type": "address"
        }
      ],
      "name": "VotoRegistrado",
      "type": "event"
    },
    {
      "inputs": [],
      "name": "administrador",
      "outputs": [
        {
          "internalType": "address",
          "name": "",
          "type": "address"
        }
      ],
      "stateMutability": "view",
      "type": "function",
      "constant": true
    },
    {
      "inputs": [
        {
          "internalType": "uint256",
          "name": "",
          "type": "uint256"
        }
      ],
      "name": "candidatos",
      "outputs": [
        {
          "internalType": "uint256",
          "name": "id",
          "type": "uint256"
        },
        {
          "internalType": "string",
          "name": "nome",
          "type": "string"
        },
        {
          "internalType": "uint256",
          "name": "contagemDeVotos",
          "type": "uint256"
        }
      ],
      "stateMutability": "view",
      "type": "function",
      "constant": true
    },
    {
      "inputs": [],
      "name": "contadorDeCandidatos",
      "outputs": [
        {
          "internalType": "uint256",
          "name": "",
          "type": "uint256"
        }
      ],
      "stateMutability": "view",
      "type": "function",
      "constant": true
    },
    {
      "inputs": [
        {
          "internalType": "address",
          "name": "",
          "type": "address"
        }
      ],
      "name": "eleitores",
      "outputs": [
        {
          "internalType": "bool",
          "name": "autorizado",
          "type": "bool"
        },
        {
          "internalType": "bool",
          "name": "votou",
          "type": "bool"
        },
        {
          "internalType": "uint256",
          "name": "voto",
          "type": "uint256"
        }
      ],
      "stateMutability": "view",
      "type": "function",
      "constant": true
    },
    {
      "inputs": [
        {
          "internalType": "string",
          "name": "_nome",
          "type": "string"
        }
      ],
      "name": "adicionarCandidato",
      "outputs": [],
      "stateMutability": "nonpayable",
      "type": "function"
    },
    {
      "inputs": [
        {
          "internalType": "address",
          "name": "_eleitor",
          "type": "address"
        },
        {
          "internalType": "bool",
          "name": "_autorizado",
          "type": "bool"
        }
      ],
      "name": "autorizarEleitor",
      "outputs": [],
      "stateMutability": "nonpayable",
      "type": "function"
    },
    {
      "inputs": [
        {
          "internalType": "uint256",
          "name": "_id",
          "type": "uint256"
        }
      ],
      "name": "obterCandidato",
      "outputs": [
        {
          "internalType": "uint256",
          "name": "",
          "type": "uint256"
        },
        {
          "internalType": "string",
          "name": "",
          "type": "string"
        },
        {
          "internalType": "uint256",
          "name": "",
          "type": "uint256"
        }
      ],
      "stateMutability": "view",
      "type": "function",
      "constant": true
    },
    {
      "inputs": [
        {
          "internalType": "uint256",
          "name": "_id",
          "type": "uint256"
        }
      ],
      "name": "votar",
      "outputs": [],
      "stateMutability": "nonpayable",
      "type": "function"
    },
    {
      "inputs": [
        {
          "internalType": "address",
          "name": "_eleitor",
          "type": "address"
        }
      ],
      "name": "verificarSeVotou",
      "outputs": [
        {
          "internalType": "bool",
          "name": "",
          "type": "bool"
        }
      ],
      "stateMutability": "view",
      "type": "function",
      "constant": true
    },
    {
      "inputs": [],
      "name": "obterTotalDeCandidatos",
      "outputs": [
        {
          "internalType": "uint256",
          "name": "",
          "type": "uint256"
        }
      ],
      "stateMutability": "view",
      "type": "function",
      "constant": true
    }
  ],
  "bytecode": "0x608060405234801561001057600080fd5b5033600360006101000a81548173ffffffffffffffffffffffffffffffffffffffff021916908373ffffffffffffffffffffffffffffffffffffffff1602179055506115d0806100616000396000f3fe608060405234801561001057600080fd5b506004361061009e5760003560e01c8063783b34fa11610066578063783b34fa146101495780638f023f851461017b578063985c64d0146101ad578063a345044a146101c9578063b615e960146101fb5761009e565b806321606831146100a35780632b315d2d146100bf5780634bc8b0c6146100dd5780636a29e438146100fb5780637062b97d1461012b575b600080fd5b6100bd60048036038101906100b89190610bd3565b610217565b005b6100c7610491565b6040516100d49190610c0f565b60405180910390f35b6100e5610497565b6040516100f29190610c0f565b60405180910390f35b61011560048036038101906101109190610c88565b6104a1565b6040516101229190610cd0565b60405180910390f35b610133610569565b6040516101409190610cfa565b60405180910390f35b610163600480360381019061015e9190610c88565b61058f565b60405161017293929190610d15565b60405180910390f35b61019560048036038101906101909190610bd3565b6105d3565b6040516101a493929190610de5565b60405180910390f35b6101c760048036038101906101c29190610f58565b610685565b005b6101e360048036038101906101de9190610bd3565b610815565b6040516101f293929190610de5565b60405180910390f35b61021560048036038101906102109190610fcd565b61094f565b005b6000600160003373ffffffffffffffffffffffffffffffffffffffff1673ffffffffffffffffffffffffffffffffffffffff16815260200190815260200160002090508060000160009054906101000a900460ff166102e4577f01a4a1d83d9b244a1b2e53c56209aa17af46aea7d79d34b0908d2d926bc6fe3082336040516102a1929190611059565b60405180910390a16040517f08c379a00000000000000000000000000000000000000000000000000000000081526004016102db90611095565b60405180910390fd5b8060000160019054906101000a900460ff161561036f577f01a4a1d83d9b244a1b2e53c56209aa17af46aea7d79d34b0908d2d926bc6fe30823360405161032c929190611101565b60405180910390a16040517f08c379a00000000000000000000000000000000000000000000000000000000081526004016103669061113d565b60405180910390fd5b600082148061037f575060025482115b156103f8577f01a4a1d83d9b244a1b2e53c56209aa17af46aea7d79d34b0908d2d926bc6fe3082336040516103b59291906111a9565b60405180910390a16040517f08c379a00000000000000000000000000000000000000000000000000000000081526004016103ef906111e5565b60405180910390fd5b60018160000160016101000a81548160ff0219169083151502179055508181600101819055506000806000848152602001908152602001600020905080600201600081548092919061044990611234565b91905055507f70a00709ec3a3050b656a566f71183141d87a08e88730c6815451e8b05b8c46e83826001013360405161048493929190611373565b60405180910390a1505050565b60025481565b6000600254905090565b60008073ffffffffffffffffffffffffffffffffffffffff168273ffffffffffffffffffffffffffffffffffffffff161415610512576040517f08c379a0000000000000000000000000000000000000000000000000000000008152600401610509906113fd565b60405180910390fd5b600160008373ffffffffffffffffffffffffffffffffffffffff1673ffffffffffffffffffffffffffffffffffffffff16815260200190815260200160002060000160019054906101000a900460ff169050919050565b600360009054906101000a900473ffffffffffffffffffffffffffffffffffffffff1681565b60016020528060005260406000206000915090508060000160009054906101000a900460ff16908060000160019054906101000a900460ff16908060010154905083565b60006020528060005260406000206000915090508060000154908060010180546105fc906112ac565b80601f0160208091040260200160405190810160405280929190818152602001828054610628906112ac565b80156106755780601f1061064a57610100808354040283529160200191610675565b820191906000526020600020905b81548152906001019060200180831161065857829003601f168201915b5050505050908060020154905083565b600360009054906101000a900473ffffffffffffffffffffffffffffffffffffffff1673ffffffffffffffffffffffffffffffffffffffff163373ffffffffffffffffffffffffffffffffffffffff1614610715576040517f08c379a000000000000000000000000000000000000000000000000000000000815260040161070c9061148f565b60405180910390fd5b6000815111610759576040517f08c379a000000000000000000000000000000000000000000000000000000000815260040161075090611521565b60405180910390fd5b6002600081548092919061076c90611234565b919050555060405180606001604052806002548152602001828152602001600081525060008060025481526020019081526020016000206000820151816000015560208201518160010190805190602001906107c9929190610ae6565b50604082015181600201559050507f58544bfb7b72adbe190353314de6d17cdf333a4279c8601860bfca4f37a64efc6002548260405161080a929190611541565b60405180910390a150565b600060606000808411801561082c57506002548411155b61086b576040517f08c379a0000000000000000000000000000000000000000000000000000000008152600401610862906111e5565b60405180910390fd5b6000806000868152602001908152602001600020604051806060016040529081600082015481526020016001820180546108a4906112ac565b80601f01602080910402602001604051908101604052809291908181526020018280546108d0906112ac565b801561091d5780601f106108f25761010080835404028352916020019161091d565b820191906000526020600020905b81548152906001019060200180831161090057829003601f168201915b505050505081526020016002820154815250509050806000015181602001518260400151935093509350509193909250565b600360009054906101000a900473ffffffffffffffffffffffffffffffffffffffff1673ffffffffffffffffffffffffffffffffffffffff163373ffffffffffffffffffffffffffffffffffffffff16146109df576040517f08c379a00000000000000000000000000000000000000000000000000000000081526004016109d69061148f565b60405180910390fd5b600073ffffffffffffffffffffffffffffffffffffffff168273ffffffffffffffffffffffffffffffffffffffff161415610a4f576040517f08c379a0000000000000000000000000000000000000000000000000000000008152600401610a46906113fd565b60405180910390fd5b80600160008473ffffffffffffffffffffffffffffffffffffffff1673ffffffffffffffffffffffffffffffffffffffff16815260200190815260200160002060000160006101000a81548160ff0219169083151502179055507ff9f51d596b722fbabce3bc823cba190e4f6c98145a2e8cb72aedd0a4f1cafcbb8282604051610ada929190611571565b60405180910390a15050565b828054610af2906112ac565b90600052602060002090601f016020900481019282610b145760008555610b5b565b82601f10610b2d57805160ff1916838001178555610b5b565b82800160010185558215610b5b579182015b82811115610b5a578251825591602001919060010190610b3f565b5b509050610b689190610b6c565b5090565b5b80821115610b85576000816000905550600101610b6d565b5090565b6000604051905090565b600080fd5b600080fd5b6000819050919050565b610bb081610b9d565b8114610bbb57600080fd5b50565b600081359050610bcd81610ba7565b92915050565b600060208284031215610be957610be8610b93565b5b6000610bf784828501610bbe565b91505092915050565b610c0981610b9d565b82525050565b6000602082019050610c246000830184610c00565b92915050565b600073ffffffffffffffffffffffffffffffffffffffff82169050919050565b6000610c5582610c2a565b9050919050565b610c6581610c4a565b8114610c7057600080fd5b50565b600081359050610c8281610c5c565b92915050565b600060208284031215610c9e57610c9d610b93565b5b6000610cac84828501610c73565b91505092915050565b60008115159050919050565b610cca81610cb5565b82525050565b6000602082019050610ce56000830184610cc1565b92915050565b610cf481610c4a565b82525050565b6000602082019050610d0f6000830184610ceb565b92915050565b6000606082019050610d2a6000830186610cc1565b610d376020830185610cc1565b610d446040830184610c00565b949350505050565b600081519050919050565b600082825260208201905092915050565b60005b83811015610d86578082015181840152602081019050610d6b565b83811115610d95576000848401525b50505050565b6000601f19601f8301169050919050565b6000610db782610d4c565b610dc18185610d57565b9350610dd1818560208601610d68565b610dda81610d9b565b840191505092915050565b6000606082019050610dfa6000830186610c00565b8181036020830152610e0c8185610dac565b9050610e1b6040830184610c00565b949350505050565b600080fd5b600080fd5b7f4e487b7100000000000000000000000000000000000000000000000000000000600052604160045260246000fd5b610e6582610d9b565b810181811067ffffffffffffffff82111715610e8457610e83610e2d565b5b80604052505050565b6000610e97610b89565b9050610ea38282610e5c565b919050565b600067ffffffffffffffff821115610ec357610ec2610e2d565b5b610ecc82610d9b565b9050602081019050919050565b82818337600083830152505050565b6000610efb610ef684610ea8565b610e8d565b905082815260208101848484011115610f1757610f16610e28565b5b610f22848285610ed9565b509392505050565b600082601f830112610f3f57610f3e610e23565b5b8135610f4f848260208601610ee8565b91505092915050565b600060208284031215610f6e57610f6d610b93565b5b600082013567ffffffffffffffff811115610f8c57610f8b610b98565b5b610f9884828501610f2a565b91505092915050565b610faa81610cb5565b8114610fb557600080fd5b50565b600081359050610fc781610fa1565b92915050565b60008060408385031215610fe457610fe3610b93565b5b6000610ff285828601610c73565b925050602061100385828601610fb8565b9150509250929050565b7f456c6569746f72206e616f206175746f72697a61646f2e000000000000000000600082015250565b6000611043601783610d57565b915061104e8261100d565b602082019050919050565b600060608201905061106e6000830185610c00565b61107b6020830184610ceb565b818103604083015261108c81611036565b90509392505050565b600060208201905081810360008301526110ae81611036565b9050919050565b7f456c6569746f72206a6120766f746f752e000000000000000000000000000000600082015250565b60006110eb601183610d57565b91506110f6826110b5565b602082019050919050565b60006060820190506111166000830185610c00565b6111236020830184610ceb565b8181036040830152611134816110de565b90509392505050565b60006020820190508181036000830152611156816110de565b9050919050565b7f43616e64696461746f20696e76616c69646f2e00000000000000000000000000600082015250565b6000611193601383610d57565b915061119e8261115d565b602082019050919050565b60006060820190506111be6000830185610c00565b6111cb6020830184610ceb565b81810360408301526111dc81611186565b90509392505050565b600060208201905081810360008301526111fe81611186565b9050919050565b7f4e487b7100000000000000000000000000000000000000000000000000000000600052601160045260246000fd5b600061123f82610b9d565b91507fffffffffffffffffffffffffffffffffffffffffffffffffffffffffffffffff82141561127257611271611205565b5b600182019050919050565b7f4e487b7100000000000000000000000000000000000000000000000000000000600052602260045260246000fd5b600060028204905060018216806112c457607f821691505b602082108114156112d8576112d761127d565b5b50919050565b60008190508160005260206000209050919050565b60008154611300816112ac565b61130a8186610d57565b9450600182166000811461132557600181146113375761136a565b60ff198316865260208601935061136a565b611340856112de565b60005b8381101561136257815481890152600182019150602081019050611343565b808801955050505b50505092915050565b60006060820190506113886000830186610c00565b818103602083015261139a81856112f3565b90506113a96040830184610ceb565b949350505050565b7f456e64657265636f20646f20656c6569746f7220696e76616c69646f2e000000600082015250565b60006113e7601d83610d57565b91506113f2826113b1565b602082019050919050565b60006020820190508181036000830152611416816113da565b9050919050565b7f4170656e6173206f2061646d696e6973747261646f7220706f6465206578656360008201527f7574617220657374612066756e63616f2e000000000000000000000000000000602082015250565b6000611479603183610d57565b91506114848261141d565b604082019050919050565b600060208201905081810360008301526114a88161146c565b9050919050565b7f4e6f6d6520646f2063616e64696461746f206e616f20706f646520657374617260008201527f2076617a696f2e00000000000000000000000000000000000000000000000000602082015250565b600061150b602783610d57565b9150611516826114af565b604082019050919050565b6000602082019050818103600083015261153a816114fe565b9050919050565b60006040820190506115566000830185610c00565b81810360208301526115688184610dac565b90509392505050565b60006040820190506115866000830185610ceb565b6115936020830184610cc1565b939250505056fea2646970667358221220a4e0386dc73eee5f69ee94d84e8b51d1e354a71d69b464f58c009247baabed2364736f6c634300080a0033",
  "immutableReferences": {},
  "source": "// SPDX-License-Identifier: MIT\npragma solidity ^0.8.0;\n\n/// @title Contrato de Votao\n/// @author marciosouzagcm@gmail.com\n/// @dev Este contrato implementa um sistema de votao simples onde um administrador pode adicionar candidatos e autorizar eleitores a votar em um deles.\ncontract Voting {\n    /// @notice Estrutura para armazenar informaes de cada candidato.\n    struct Candidato {\n        uint256 id;             ///< ID nico do candidato.\n        string nome;            ///< Nome do candidato.\n        uint256 contagemDeVotos; ///< Nmero de votos recebidos pelo candidato.\n    }\n\n    /// @notice Estrutura para armazenar informaes de cada eleitor.\n    struct Eleitor {\n        bool autorizado; ///< Indica se o eleitor foi autorizado a votar pelo administrador.\n        bool votou;     ///< Indica se o eleitor j votou.\n        uint256 voto;   ///< ID do candidato em quem o eleitor votou.\n    }\n\n    /// @notice Mapeia um ID de candidato para a sua estrutura de informaes `Candidato`.\n    /// @dev Permite acessar as informaes de um candidato usando seu ID.\n    mapping(uint256 => Candidato) public candidatos;\n\n    /// @notice Mapeia o endereo de um eleitor para a sua estrutura de informaes `Eleitor`.\n    /// @dev Permite verificar o status de um eleitor (autorizado, votou, em quem votou) usando seu endereo.\n    mapping(address => Eleitor) public eleitores;\n\n    /// @notice Contador para rastrear o nmero total de candidatos adicionados.\n    /// @dev O ID de um novo candidato  geralmente definido como o valor atual deste contador antes de ser incrementado.\n    uint256 public contadorDeCandidatos;\n\n    /// @notice Endereo da conta que tem permisses de administrador.\n    /// @dev Apenas o administrador pode adicionar candidatos e autorizar eleitores.\n    address public administrador;\n\n    /// @notice Evento emitido quando um novo candidato  adicionado ao sistema.\n    event CandidatoAdicionado(uint256 id, string nome);\n\n    /// @notice Evento emitido quando um voto  registrado com sucesso.\n    event VotoRegistrado(uint256 id, string nome, address eleitor);\n\n    /// @notice Evento emitido quando ocorre uma tentativa de voto invlida.\n    event VotoFalhou(uint256 idCandidato, address eleitor, string motivo);\n\n    /// @notice Evento emitido quando um eleitor  autorizado ou desautorizado.\n    event EleitorAutorizado(address eleitor, bool autorizado);\n\n    /// @notice Modificador que restringe a execuo de uma funo apenas ao administrador.\n    modifier apenasAdministrador() {\n        require(msg.sender == administrador, \"Apenas o administrador pode executar esta funcao.\");\n        _; // Permite que a execuo da funo modificada continue.\n    }\n\n    /// @notice Construtor do contrato. Define o endereo da conta que implantou o contrato como o administrador inicial.\n    constructor() {\n        administrador = msg.sender;\n    }\n\n    /// @notice Funo para adicionar um novo candidato ao sistema. Apenas o administrador pode chamar esta funo.\n    /// @param _nome O nome do candidato a ser adicionado.\n    function adicionarCandidato(string memory _nome) public apenasAdministrador {\n        require(bytes(_nome).length > 0, \"Nome do candidato nao pode estar vazio.\");\n\n        // Incrementa o contador de candidatos antes de atribuir o ID ao novo candidato.\n        contadorDeCandidatos++;\n        // Cria uma nova estrutura Candidato e a armazena no mapeamento `candidatos` usando o novo `contadorDeCandidatos` como ID.\n        candidatos[contadorDeCandidatos] = Candidato(contadorDeCandidatos, _nome, 0);\n\n        // Emite um evento para registrar a adio do candidato, incluindo seu ID e nome.\n        emit CandidatoAdicionado(contadorDeCandidatos, _nome);\n    }\n\n    /// @notice Funo para autorizar ou desautorizar um eleitor a votar. Apenas o administrador pode chamar esta funo.\n    /// @param _eleitor O endereo do eleitor a ser autorizado ou desautorizado.\n    /// @param _autorizado Um booleano indicando se o eleitor deve ser autorizado (true) ou desautorizado (false).\n    function autorizarEleitor(address _eleitor, bool _autorizado) public apenasAdministrador {\n        require(_eleitor != address(0), \"Endereco do eleitor invalido.\");\n        // Atualiza o status de autorizao do eleitor no mapeamento `eleitores`.\n        eleitores[_eleitor].autorizado = _autorizado;\n        // Emite um evento para registrar a autorizao (ou desautorizao) do eleitor.\n        emit EleitorAutorizado(_eleitor, _autorizado);\n    }\n\n    /// @notice Funo para obter as informaes de um candidato especfico.\n    /// @param _id O ID do candidato a ser consultado.\n    /// @return (uint256, string memory, uint256) Retorna o ID, nome e contagem de votos do candidato.\n    function obterCandidato(uint256 _id) public view returns (uint256, string memory, uint256) {\n        require(_id > 0 && _id <= contadorDeCandidatos, \"Candidato invalido.\");\n        // Recupera a estrutura Candidato do mapeamento `candidatos` usando o ID fornecido.\n        Candidato memory candidato = candidatos[_id];\n        return (candidato.id, candidato.nome, candidato.contagemDeVotos);\n    }\n\n    /// @notice Funo para um eleitor votar em um candidato.\n    /// @param _id O ID do candidato em quem o eleitor deseja votar.\n    function votar(uint256 _id) public {\n        // Recupera a estrutura Eleitor do remetente da mensagem (o eleitor).\n        Eleitor storage eleitor = eleitores[msg.sender];\n\n        // Verifica se o eleitor est autorizado a votar.\n        if (!eleitor.autorizado) {\n            emit VotoFalhou(_id, msg.sender, \"Eleitor nao autorizado.\");\n            revert(\"Eleitor nao autorizado.\");\n        }\n\n        // Verifica se o eleitor j votou.\n        if (eleitor.votou) {\n            emit VotoFalhou(_id, msg.sender, \"Eleitor ja votou.\");\n            revert(\"Eleitor ja votou.\");\n        }\n\n        // Verifica se o ID do candidato  vlido.\n        if (_id == 0 || _id > contadorDeCandidatos) {\n            emit VotoFalhou(_id, msg.sender, \"Candidato invalido.\");\n            revert(\"Candidato invalido.\");\n        }\n\n        // Marca o eleitor como tendo votado e registra o ID do candidato em quem ele votou.\n        eleitor.votou = true;\n        eleitor.voto = _id;\n\n        // Recupera a estrutura Candidato do mapeamento `candidatos` usando o ID fornecido e incrementa a contagem de votos.\n        Candidato storage candidato = candidatos[_id];\n        candidato.contagemDeVotos++;\n\n        // Emite um evento para registrar o voto, incluindo o ID do candidato, seu nome e o endereo do eleitor.\n        emit VotoRegistrado(_id, candidato.nome, msg.sender);\n    }\n\n    /// @notice Funo para verificar se um determinado endereo j votou.\n    /// @param _eleitor O endereo do eleitor a ser verificado.\n    /// @return (bool) Retorna true se o eleitor j votou, false caso contrrio.\n    function verificarSeVotou(address _eleitor) public view returns (bool) {\n        require(_eleitor != address(0), \"Endereco do eleitor invalido.\");\n        return eleitores[_eleitor].votou;\n    }\n\n    /// @notice Funo para obter o nmero total de candidatos registrados no sistema.\n    /// @return (uint256) Retorna o nmero total de candidatos.\n    function obterTotalDeCandidatos() public view returns (uint256) {\n        return contadorDeCandidatos;\n    }\n}",
  "sourcePath": "C:\\Users\\DELL\\api-java-smart-contracts\\src\\main\\java\\smart-contracts\\contracts\\contractVoting.sol",
  "compiler": {
    "name": "solc",
    "version": "0.8.10+commit.fc410830.Emscripten.clang"
  },
  "schemaVersion": "3.4.14",
  "updatedAt": "2025-05-16T15:41:28.906Z",
  "networkType": "ethereum",
  "devdoc": {
    "author": "marciosouzagcm@gmail.com",
    "details": "Este contrato implementa um sistema de votao simples onde um administrador pode adicionar candidatos e autorizar eleitores a votar em um deles.",
    "kind": "dev",
    "methods": {
      "adicionarCandidato(string)": {
        "params": {
          "_nome": "O nome do candidato a ser adicionado."
        }
      },
      "autorizarEleitor(address,bool)": {
        "params": {
          "_autorizado": "Um booleano indicando se o eleitor deve ser autorizado (true) ou desautorizado (false).",
          "_eleitor": "O endereo do eleitor a ser autorizado ou desautorizado."
        }
      },
      "obterCandidato(uint256)": {
        "params": {
          "_id": "O ID do candidato a ser consultado."
        },
        "returns": {
          "_0": "(uint256, string memory, uint256) Retorna o ID, nome e contagem de votos do candidato."
        }
      },
      "obterTotalDeCandidatos()": {
        "returns": {
          "_0": "(uint256) Retorna o nmero total de candidatos."
        }
      },
      "verificarSeVotou(address)": {
        "params": {
          "_eleitor": "O endereo do eleitor a ser verificado."
        },
        "returns": {
          "_0": "(bool) Retorna true se o eleitor j votou, false caso contrrio."
        }
      },
      "votar(uint256)": {
        "params": {
          "_id": "O ID do candidato em quem o eleitor deseja votar."
        }
      }
    },
    "stateVariables": {
      "administrador": {
        "details": "Apenas o administrador pode adicionar candidatos e autorizar eleitores."
      },
      "candidatos": {
        "details": "Permite acessar as informaes de um candidato usando seu ID."
      },
      "contadorDeCandidatos": {
        "details": "O ID de um novo candidato  geralmente definido como o valor atual deste contador antes de ser incrementado."
      },
      "eleitores": {
        "details": "Permite verificar o status de um eleitor (autorizado, votou, em quem votou) usando seu endereo."
      }
    },
    "title": "Contrato de Votao",
    "version": 1
  },
  "userdoc": {
    "events": {
      "CandidatoAdicionado(uint256,string)": {
        "notice": "Evento emitido quando um novo candidato  adicionado ao sistema."
      },
      "EleitorAutorizado(address,bool)": {
        "notice": "Evento emitido quando um eleitor  autorizado ou desautorizado."
      },
      "VotoFalhou(uint256,address,string)": {
        "notice": "Evento emitido quando ocorre uma tentativa de voto invlida."
      },
      "VotoRegistrado(uint256,string,address)": {
        "notice": "Evento emitido quando um voto  registrado com sucesso."
      }
    },
    "kind": "user",
    "methods": {
      "adicionarCandidato(string)": {
        "notice": "Funo para adicionar um novo candidato ao sistema. Apenas o administrador pode chamar esta funo."
      },
      "administrador()": {
        "notice": "Endereo da conta que tem permisses de administrador."
      },
      "autorizarEleitor(address,bool)": {
        "notice": "Funo para autorizar ou desautorizar um eleitor a votar. Apenas o administrador pode chamar esta funo."
      },
      "candidatos(uint256)": {
        "notice": "Mapeia um ID de candidato para a sua estrutura de informaes `Candidato`."
      },
      "constructor": {
        "notice": "Construtor do contrato. Define o endereo da conta que implantou o contrato como o administrador inicial."
      },
      "contadorDeCandidatos()": {
        "notice": "Contador para rastrear o nmero total de candidatos adicionados."
      },
      "eleitores(address)": {
        "notice": "Mapeia o endereo de um eleitor para a sua estrutura de informaes `Eleitor`."
      },
      "obterCandidato(uint256)": {
        "notice": "Funo para obter as informaes de um candidato especfico."
      },
      "obterTotalDeCandidatos()": {
        "notice": "Funo para obter o nmero total de candidatos registrados no sistema."
      },
      "verificarSeVotou(address)": {
        "notice": "Funo para verificar se um determinado endereo j votou."
      },
      "votar(uint256)": {
        "notice": "Funo para um eleitor votar em um candidato."
      }
    },
    "version": 1
  }
}